{
  "transactions": [
    {
      "hash": "0x775e52806730f26a9d1f46a5fbc5070ca7bf1745048bec2d2ec5dd278dec55fe",
      "transactionType": "CALL",
      "contractName": null,
      "contractAddress": "0x779877a7b0d9e8603169ddbd7836e478b4624789",
      "function": "transferAndCall(address,uint256,bytes)",
      "arguments": [
        "0x9DdfaCa8183c41ad55329BdeeD9F6A8d53168B1B",
        "10000000000000000",
        "0x5afe730750d0dc9eaf1e95e9a391965e0a9dd3e3c61e68e2e4e3454e156e6945"
      ],
      "transaction": {
        "from": "0xa1604a58ddb43831b77c2c82fabf6839153810a1",
        "to": "0x779877a7b0d9e8603169ddbd7836e478b4624789",
        "gas": "0x1a8ee",
        "value": "0x0",
        "input": "0x4000aea00000000000000000000000009ddfaca8183c41ad55329bdeed9f6a8d53168b1b000000000000000000000000000000000000000000000000002386f26fc10000000000000000000000000000000000000000000000000000000000000000006000000000000000000000000000000000000000000000000000000000000000205afe730750d0dc9eaf1e95e9a391965e0a9dd3e3c61e68e2e4e3454e156e6945",
        "nonce": "0x51",
        "chainId": "0xaa36a7"
      },
      "additionalContracts": [],
      "isFixedGasLimit": false
    }
  ],
  "receipts": [
    {
      "status": "0x1",
      "cumulativeGasUsed": "0xce7976",
      "logs": [
        {
          "address": "0x779877a7b0d9e8603169ddbd7836e478b4624789",
          "topics": [
            "0xddf252ad1be2c89b69c2b068fc378daa952ba7f163c4a11628f55a4df523b3ef",
            "0x000000000000000000000000a1604a58ddb43831b77c2c82fabf6839153810a1",
            "0x0000000000000000000000009ddfaca8183c41ad55329bdeed9f6a8d53168b1b"
          ],
          "data": "0x000000000000000000000000000000000000000000000000002386f26fc10000",
          "blockHash": "0xc9be7a500284262cce2c360f2112d58fd704f34983b69ec4ef6c6ce53475ed1c",
          "blockNumber": "0xa2e55a",
          "blockTimestamp": "0x69e1b220",
          "transactionHash": "0x775e52806730f26a9d1f46a5fbc5070ca7bf1745048bec2d2ec5dd278dec55fe",
          "transactionIndex": "0x46",
          "logIndex": "0x270",
          "removed": false
        },
        {
          "address": "0x779877a7b0d9e8603169ddbd7836e478b4624789",
          "topics": [
            "0xe19260aff97b920c7df27010903aeb9c8d2be5d310a2c67824cf3f15396e4c16",
            "0x000000000000000000000000a1604a58ddb43831b77c2c82fabf6839153810a1",
            "0x0000000000000000000000009ddfaca8183c41ad55329bdeed9f6a8d53168b1b"
          ],
          "data": "0x000000000000000000000000000000000000000000000000002386f26fc10000000000000000000000000000000000000000000000000000000000000000004000000000000000000000000000000000000000000000000000000000000000205afe730750d0dc9eaf1e95e9a391965e0a9dd3e3c61e68e2e4e3454e156e6945",
          "blockHash": "0xc9be7a500284262cce2c360f2112d58fd704f34983b69ec4ef6c6ce53475ed1c",
          "blockNumber": "0xa2e55a",
          "blockTimestamp": "0x69e1b220",
          "transactionHash": "0x775e52806730f26a9d1f46a5fbc5070ca7bf1745048bec2d2ec5dd278dec55fe",
          "transactionIndex": "0x46",
          "logIndex": "0x271",
          "removed": false
        },
        {
          "address": "0x9ddfaca8183c41ad55329bdeed9f6a8d53168b1b",
          "topics": [
            "0x1ced9348ff549fceab2ac57cd3a9de38edaaab274b725ee82c23e8fc8c4eec7a",
            "0x5afe730750d0dc9eaf1e95e9a391965e0a9dd3e3c61e68e2e4e3454e156e6945"
          ],
          "data": "0x0000000000000000000000000000000000000000000000000000000000000000000000000000000000000000000000000000000000000000002386f26fc10000",
          "blockHash": "0xc9be7a500284262cce2c360f2112d58fd704f34983b69ec4ef6c6ce53475ed1c",
          "blockNumber": "0xa2e55a",
          "blockTimestamp": "0x69e1b220",
          "transactionHash": "0x775e52806730f26a9d1f46a5fbc5070ca7bf1745048bec2d2ec5dd278dec55fe",
          "transactionIndex": "0x46",
          "logIndex": "0x272",
          "removed": false
        }
      ],
      "logsBloom": "0x00000004000000000000000000000000000000000020000000000000020000000000000000000000000000000000000000000000000000000000000000000020000000000000000000000008000000000000000000000000000020000020000008000000000000000000000000000000000000000000000000000010000041000000000000000000000000010000800000000020000000000000000000000000000000000000000000000000010008000000000000000000000004000000008000000002000000000000000000000000000000000000000100000000000000000010000000000100804000000000000000000000000000000000000000000000",
      "type": "0x2",
      "transactionHash": "0x775e52806730f26a9d1f46a5fbc5070ca7bf1745048bec2d2ec5dd278dec55fe",
      "transactionIndex": "0x46",
      "blockHash": "0xc9be7a500284262cce2c360f2112d58fd704f34983b69ec4ef6c6ce53475ed1c",
      "blockNumber": "0xa2e55a",
      "gasUsed": "0x133a5",
      "effectiveGasPrice": "0x2e1094ba",
      "from": "0xa1604a58ddb43831b77c2c82fabf6839153810a1",
      "to": "0x779877a7b0d9e8603169ddbd7836e478b4624789",
      "contractAddress": null
    }
  ],
  "libraries": [],
  "pending": [],
  "returns": {},
  "timestamp": 1776398881722,
  "chain": 11155111,
  "commit": null
}