{
  "transactions": [
    {
      "hash": "0x171f10edd3f3d7ea7168f1d78fb76557c505beb919a870c427b8e7f4ceeaadb1",
      "transactionType": "CALL",
      "contractName": "HelperConfig",
      "contractAddress": "0x5aadfb43ef8daf45dd80f4676345b7676f1d70e3",
      "function": "getConfig()",
      "arguments": [],
      "transaction": {
        "from": "0x8282b51f90de07f1279ca36f0f559c5d7733bed3",
        "to": "0x5aadfb43ef8daf45dd80f4676345b7676f1d70e3",
        "gas": "0x6ce0",
        "value": "0x0",
        "input": "0xc3f909d4",
        "nonce": "0x5e",
        "chainId": "0xa4b1"
      },
      "additionalContracts": [],
      "isFixedGasLimit": false
    },
    {
      "hash": "0x84e7370da85430ca0d35b76b1dcc33f389493364cab7a8c892d497fd98d9e81a",
      "transactionType": "CALL",
      "contractName": "EntryPoint",
      "contractAddress": "0x0000000071727de22e5e9d8baf0edac6f37da032",
      "function": "handleOps((address,uint256,bytes,bytes,bytes32,uint256,bytes32,bytes,bytes)[],address)",
      "arguments": [
        "[(0xb2d42c50f27528BFaF8850cBD667D64B384bDd75, 0, 0x, 0xb61d27f600000000000000000000000075faf114eafb1bdbe2f0316df893fd58ce46aa4d000000000000000000000000000000000000000000000000000000000000000000000000000000000000000000000000000000000000000000000000000000600000000000000000000000000000000000000000000000000000000000000044095ea7b3000000000000000000000000b2d42c50f27528bfaf8850cbd667d64b384bdd750000000000000000000000000000000000000000000000000de0b6b3a764000000000000000000000000000000000000000000000000000000000000, 0x0000000000000000000000000100000000000000000000000000000001000000, 16777216, 0x0000000000000000000000000000010000000000000000000000000000000100, 0x, 0x90c3b49a89ade7f51f52848265dc403d82c9c8e21b94d1b90f7f80abbda509f434f9738811b85d7139e876fc8c89c751993f1f8f20882436af507354781dd8a91c)]",
        "0xb2d42c50f27528BFaF8850cBD667D64B384bDd75"
      ],
      "transaction": {
        "from": "0x8282b51f90de07f1279ca36f0f559c5d7733bed3",
        "to": "0x0000000071727de22e5e9d8baf0edac6f37da032",
        "gas": "0x15a740c",
        "value": "0x0",
        "input": "0x765e827f0000000000000000000000000000000000000000000000000000000000000040000000000000000000000000b2d42c50f27528bfaf8850cbd667d64b384bdd7500000000000000000000000000000000000000000000000000000000000000010000000000000000000000000000000000000000000000000000000000000020000000000000000000000000b2d42c50f27528bfaf8850cbd667d64b384bdd7500000000000000000000000000000000000000000000000000000000000000000000000000000000000000000000000000000000000000000000000000000120000000000000000000000000000000000000000000000000000000000000014000000000000000000000000001000000000000000000000000000000010000000000000000000000000000000000000000000000000000000000000001000000000000000000000000000000000001000000000000000000000000000000010000000000000000000000000000000000000000000000000000000000000002600000000000000000000000000000000000000000000000000000000000000280000000000000000000000000000000000000000000000000000000000000000000000000000000000000000000000000000000000000000000000000000000e4b61d27f600000000000000000000000075faf114eafb1bdbe2f0316df893fd58ce46aa4d000000000000000000000000000000000000000000000000000000000000000000000000000000000000000000000000000000000000000000000000000000600000000000000000000000000000000000000000000000000000000000000044095ea7b3000000000000000000000000b2d42c50f27528bfaf8850cbd667d64b384bdd750000000000000000000000000000000000000000000000000de0b6b3a764000000000000000000000000000000000000000000000000000000000000000000000000000000000000000000000000000000000000000000000000000000000000000000000000000000000000000000000000000000000000000000000000000000000000000000000000000000000000000000000000004190c3b49a89ade7f51f52848265dc403d82c9c8e21b94d1b90f7f80abbda509f434f9738811b85d7139e876fc8c89c751993f1f8f20882436af507354781dd8a91c00000000000000000000000000000000000000000000000000000000000000",
        "nonce": "0x5f",
        "chainId": "0xa4b1"
      },
      "additionalContracts": [],
      "isFixedGasLimit": false
    }
  ],
  "receipts": [
    {
      "status": "0x1",
      "cumulativeGasUsed": "0x8a888",
      "logs": [],
      "logsBloom": "0x00000000000000000000000000000000000000000000000000000000000000000000000000000000000000000000000000000000000000000000000000000000000000000000000000000000000000000000000000000000000000000000000000000000000000000000000000000000000000000000000000000000000000000000000000000000000000000000000000000000000000000000000000000000000000000000000000000000000000000000000000000000000000000000000000000000000000000000000000000000000000000000000000000000000000000000000000000000000000000000000000000000000000000000000000000000",
      "type": "0x2",
      "transactionHash": "0x171f10edd3f3d7ea7168f1d78fb76557c505beb919a870c427b8e7f4ceeaadb1",
      "transactionIndex": "0x4",
      "blockHash": "0x28a7fe75d69a92071c99852c4b29e0a6eb95e301507a63b47087efeda703432f",
      "blockNumber": "0x1c7b4d03",
      "gasUsed": "0x52e5",
      "effectiveGasPrice": "0x1322ed0",
      "from": "0x8282b51f90de07f1279ca36f0f559c5d7733bed3",
      "to": "0x5aadfb43ef8daf45dd80f4676345b7676f1d70e3",
      "contractAddress": null,
      "gasUsedForL1": "0x9d",
      "l1BlockNumber": "0x183b256",
      "timeboosted": false
    },
    {
      "status": "0x1",
      "cumulativeGasUsed": "0x1d24a",
      "logs": [
        {
          "address": "0x0000000071727de22e5e9d8baf0edac6f37da032",
          "topics": [
            "0x2da466a7b24304f47e87fa2e1e5a81b9831ce54fec19055ce277ca2f39ba42c4",
            "0x000000000000000000000000b2d42c50f27528bfaf8850cbd667d64b384bdd75"
          ],
          "data": "0x0000000000000000000000000000000000000000000000000000000300000000",
          "blockHash": "0x3b4ef1b726934db35a70a88ec996bb8ed1a277ab55953e33b5c5bb871890844b",
          "blockNumber": "0x1c7b4d0a",
          "blockTimestamp": "0x6a3f9817",
          "transactionHash": "0x84e7370da85430ca0d35b76b1dcc33f389493364cab7a8c892d497fd98d9e81a",
          "transactionIndex": "0x1",
          "logIndex": "0x0",
          "removed": false
        },
        {
          "address": "0x0000000071727de22e5e9d8baf0edac6f37da032",
          "topics": [
            "0xbb47ee3e183a558b1a2ff0874b079f3fc5478b7454eacf2bfc5af2ff5878f972"
          ],
          "data": "0x",
          "blockHash": "0x3b4ef1b726934db35a70a88ec996bb8ed1a277ab55953e33b5c5bb871890844b",
          "blockNumber": "0x1c7b4d0a",
          "blockTimestamp": "0x6a3f9817",
          "transactionHash": "0x84e7370da85430ca0d35b76b1dcc33f389493364cab7a8c892d497fd98d9e81a",
          "transactionIndex": "0x1",
          "logIndex": "0x1",
          "removed": false
        },
        {
          "address": "0x0000000071727de22e5e9d8baf0edac6f37da032",
          "topics": [
            "0x49628fd1471006c1482da88028e9ce4dbb080b815c9b0344d39e5a8e6ec1419f",
            "0x2465c4ee611d92cb6f32c9a9a1637f1a46880ddae4074fa7f64b549bff5a74cf",
            "0x000000000000000000000000b2d42c50f27528bfaf8850cbd667d64b384bdd75",
            "0x0000000000000000000000000000000000000000000000000000000000000000"
          ],
          "data": "0x00000000000000000000000000000000000000000000000000000000000000000000000000000000000000000000000000000000000000000000000000000001000000000000000000000000000000000000000000000000000000011ab4ba0000000000000000000000000000000000000000000000000000000000011ab4ba",
          "blockHash": "0x3b4ef1b726934db35a70a88ec996bb8ed1a277ab55953e33b5c5bb871890844b",
          "blockNumber": "0x1c7b4d0a",
          "blockTimestamp": "0x6a3f9817",
          "transactionHash": "0x84e7370da85430ca0d35b76b1dcc33f389493364cab7a8c892d497fd98d9e81a",
          "transactionIndex": "0x1",
          "logIndex": "0x2",
          "removed": false
        }
      ],
      "logsBloom": "0x00000000000000000000000000000000000000000000080000000000000000010008000000000000000000010000000000000000000000000000020000000000000000000000000000000000000000000040000000000000000004000000200000000000020800000000000000000800000000000000000000000000000200000400000000000000000000000000000000000000000000000000000000000000000000000000000000400000000000000000000000000000000002000000000000000000000000400001000000000000000000000000000000000000000020000040000000100000000000000000000000000000000000000100000000000000",
      "type": "0x2",
      "transactionHash": "0x84e7370da85430ca0d35b76b1dcc33f389493364cab7a8c892d497fd98d9e81a",
      "transactionIndex": "0x1",
      "blockHash": "0x3b4ef1b726934db35a70a88ec996bb8ed1a277ab55953e33b5c5bb871890844b",
      "blockNumber": "0x1c7b4d0a",
      "gasUsed": "0x1d24a",
      "effectiveGasPrice": "0x1312d00",
      "from": "0x8282b51f90de07f1279ca36f0f559c5d7733bed3",
      "to": "0x0000000071727de22e5e9d8baf0edac6f37da032",
      "contractAddress": null,
      "gasUsedForL1": "0x257",
      "l1BlockNumber": "0x183b256",
      "timeboosted": false
    }
  ],
  "libraries": [],
  "pending": [],
  "returns": {},
  "timestamp": 1782552601275,
  "chain": 42161,
  "commit": "72b6667"
}