{
  "transactions": [
    {
      "hash": "0xdafb6678b6207846736e8b13a94b4b950a6fae1036363099210d0d52cdfa3868",
      "transactionType": "CALL",
      "contractName": "HelperConfig",
      "contractAddress": "0x5aadfb43ef8daf45dd80f4676345b7676f1d70e3",
      "function": "getConfig()",
      "arguments": [],
      "transaction": {
        "from": "0x8282b51f90de07f1279ca36f0f559c5d7733bed3",
        "to": "0x5aadfb43ef8daf45dd80f4676345b7676f1d70e3",
        "gas": "0x6cf0",
        "value": "0x0",
        "input": "0xc3f909d4",
        "nonce": "0x62",
        "chainId": "0xa4b1"
      },
      "additionalContracts": [],
      "isFixedGasLimit": false
    },
    {
      "hash": "0x3d601619142d4765364238c98a9a01585db18a01b5aea1ab26eb950eaa99b993",
      "transactionType": "CALL",
      "contractName": "EntryPoint",
      "contractAddress": "0x0000000071727de22e5e9d8baf0edac6f37da032",
      "function": "handleOps((address,uint256,bytes,bytes,bytes32,uint256,bytes32,bytes,bytes)[],address)",
      "arguments": [
        "[(0xb2d42c50f27528BFaF8850cBD667D64B384bDd75, 2, 0x, 0xb61d27f60000000000000000000000008282b51f90de07f1279ca36f0f559c5d7733bed30000000000000000000000000000000000000000000000000000886c98b7600000000000000000000000000000000000000000000000000000000000000000600000000000000000000000000000000000000000000000000000000000000000, 0x0000000000000000000000000100000000000000000000000000000001000000, 16777216, 0x0000000000000000000000000000010000000000000000000000000000000100, 0x, 0x527528f5351ab633792bd9ea222c8306c4ae441f07aae1ceda58a150b5853f446bdcd90e050ebc6bd81dbbb408f9f73680442518d80bea65dcc41d6668f6dbcd1b)]",
        "0xb2d42c50f27528BFaF8850cBD667D64B384bDd75"
      ],
      "transaction": {
        "from": "0x8282b51f90de07f1279ca36f0f559c5d7733bed3",
        "to": "0x0000000071727de22e5e9d8baf0edac6f37da032",
        "gas": "0x159f037",
        "value": "0x0",
        "input": "0x765e827f0000000000000000000000000000000000000000000000000000000000000040000000000000000000000000b2d42c50f27528bfaf8850cbd667d64b384bdd7500000000000000000000000000000000000000000000000000000000000000010000000000000000000000000000000000000000000000000000000000000020000000000000000000000000b2d42c50f27528bfaf8850cbd667d64b384bdd750000000000000000000000000000000000000000000000000000000000000002000000000000000000000000000000000000000000000000000000000000012000000000000000000000000000000000000000000000000000000000000001400000000000000000000000000100000000000000000000000000000001000000000000000000000000000000000000000000000000000000000000000100000000000000000000000000000000000100000000000000000000000000000001000000000000000000000000000000000000000000000000000000000000000200000000000000000000000000000000000000000000000000000000000000022000000000000000000000000000000000000000000000000000000000000000000000000000000000000000000000000000000000000000000000000000000084b61d27f60000000000000000000000008282b51f90de07f1279ca36f0f559c5d7733bed30000000000000000000000000000000000000000000000000000886c98b76000000000000000000000000000000000000000000000000000000000000000006000000000000000000000000000000000000000000000000000000000000000000000000000000000000000000000000000000000000000000000000000000000000000000000000000000000000000000000000000000000000000000000000000000000000000000000000000000000000000000000000000000041527528f5351ab633792bd9ea222c8306c4ae441f07aae1ceda58a150b5853f446bdcd90e050ebc6bd81dbbb408f9f73680442518d80bea65dcc41d6668f6dbcd1b00000000000000000000000000000000000000000000000000000000000000",
        "nonce": "0x63",
        "chainId": "0xa4b1"
      },
      "additionalContracts": [],
      "isFixedGasLimit": false
    }
  ],
  "receipts": [
    {
      "status": "0x1",
      "cumulativeGasUsed": "0xbf145",
      "logs": [],
      "logsBloom": "0x00000000000000000000000000000000000000000000000000000000000000000000000000000000000000000000000000000000000000000000000000000000000000000000000000000000000000000000000000000000000000000000000000000000000000000000000000000000000000000000000000000000000000000000000000000000000000000000000000000000000000000000000000000000000000000000000000000000000000000000000000000000000000000000000000000000000000000000000000000000000000000000000000000000000000000000000000000000000000000000000000000000000000000000000000000000",
      "type": "0x2",
      "transactionHash": "0xdafb6678b6207846736e8b13a94b4b950a6fae1036363099210d0d52cdfa3868",
      "transactionIndex": "0x5",
      "blockHash": "0x7caaf3044189fc5bf113c3494b058f7c7e563c4daa8cf9c40cf9075acf36f52d",
      "blockNumber": "0x1c7b757c",
      "gasUsed": "0x52ef",
      "effectiveGasPrice": "0x13134d0",
      "from": "0x8282b51f90de07f1279ca36f0f559c5d7733bed3",
      "to": "0x5aadfb43ef8daf45dd80f4676345b7676f1d70e3",
      "contractAddress": null,
      "gasUsedForL1": "0xa7",
      "l1BlockNumber": "0x183b32d",
      "timeboosted": false
    },
    {
      "status": "0x1",
      "cumulativeGasUsed": "0x5bbe2",
      "logs": [
        {
          "address": "0x0000000071727de22e5e9d8baf0edac6f37da032",
          "topics": [
            "0x2da466a7b24304f47e87fa2e1e5a81b9831ce54fec19055ce277ca2f39ba42c4",
            "0x000000000000000000000000b2d42c50f27528bfaf8850cbd667d64b384bdd75"
          ],
          "data": "0x0000000000000000000000000000000000000000000000000000000300000000",
          "blockHash": "0xe126723e5c8beb9efa81c11c57947faae6e29840b6b2171cc4c01d8414f81857",
          "blockNumber": "0x1c7b7582",
          "blockTimestamp": "0x6a3fa234",
          "transactionHash": "0x3d601619142d4765364238c98a9a01585db18a01b5aea1ab26eb950eaa99b993",
          "transactionIndex": "0x3",
          "logIndex": "0x8",
          "removed": false
        },
        {
          "address": "0x0000000071727de22e5e9d8baf0edac6f37da032",
          "topics": [
            "0xbb47ee3e183a558b1a2ff0874b079f3fc5478b7454eacf2bfc5af2ff5878f972"
          ],
          "data": "0x",
          "blockHash": "0xe126723e5c8beb9efa81c11c57947faae6e29840b6b2171cc4c01d8414f81857",
          "blockNumber": "0x1c7b7582",
          "blockTimestamp": "0x6a3fa234",
          "transactionHash": "0x3d601619142d4765364238c98a9a01585db18a01b5aea1ab26eb950eaa99b993",
          "transactionIndex": "0x3",
          "logIndex": "0x9",
          "removed": false
        },
        {
          "address": "0x0000000071727de22e5e9d8baf0edac6f37da032",
          "topics": [
            "0x49628fd1471006c1482da88028e9ce4dbb080b815c9b0344d39e5a8e6ec1419f",
            "0xaa26f488b16549f9475ddb4533852aab29a62b4250a513351f3d9a0af2534636",
            "0x000000000000000000000000b2d42c50f27528bfaf8850cbd667d64b384bdd75",
            "0x0000000000000000000000000000000000000000000000000000000000000000"
          ],
          "data": "0x00000000000000000000000000000000000000000000000000000000000000020000000000000000000000000000000000000000000000000000000000000001000000000000000000000000000000000000000000000000000000011a46fd0000000000000000000000000000000000000000000000000000000000011a46fd",
          "blockHash": "0xe126723e5c8beb9efa81c11c57947faae6e29840b6b2171cc4c01d8414f81857",
          "blockNumber": "0x1c7b7582",
          "blockTimestamp": "0x6a3fa234",
          "transactionHash": "0x3d601619142d4765364238c98a9a01585db18a01b5aea1ab26eb950eaa99b993",
          "transactionIndex": "0x3",
          "logIndex": "0xa",
          "removed": false
        }
      ],
      "logsBloom": "0x00000000000000000000000000000000000000000000080000000000000000010008000000000000000010010000000000000000000000000000020000000000000000000000000000000000000000000040000000000000000000000000200000000000020800000000000000000800000000000000000000000000000200000000000000000000000000000000000000000000000000000000000000000000000000000000000000400000000000000000000000000000000046000000000000000000000000400001000000000000000000000000000000000000000020000040000000000000000000000000000000000000000000000100000000000000",
      "type": "0x2",
      "transactionHash": "0x3d601619142d4765364238c98a9a01585db18a01b5aea1ab26eb950eaa99b993",
      "transactionIndex": "0x3",
      "blockHash": "0xe126723e5c8beb9efa81c11c57947faae6e29840b6b2171cc4c01d8414f81857",
      "blockNumber": "0x1c7b7582",
      "gasUsed": "0x16463",
      "effectiveGasPrice": "0x132ea50",
      "from": "0x8282b51f90de07f1279ca36f0f559c5d7733bed3",
      "to": "0x0000000071727de22e5e9d8baf0edac6f37da032",
      "contractAddress": null,
      "gasUsedForL1": "0x255",
      "l1BlockNumber": "0x183b32d",
      "timeboosted": false
    }
  ],
  "libraries": [],
  "pending": [],
  "returns": {},
  "timestamp": 1782555191017,
  "chain": 42161,
  "commit": "72b6667"
}