{
  "transactions": [
    {
      "hash": "0xe3ca6a3b8b688f7d38942e110ef75f8bf05ecd7c432429ee7dd619e0f3c5402e",
      "transactionType": "CALL",
      "contractName": "HelperConfig",
      "contractAddress": "0x5aadfb43ef8daf45dd80f4676345b7676f1d70e3",
      "function": "getConfig()",
      "arguments": [],
      "transaction": {
        "from": "0x8282b51f90de07f1279ca36f0f559c5d7733bed3",
        "to": "0x5aadfb43ef8daf45dd80f4676345b7676f1d70e3",
        "gas": "0x6cd4",
        "value": "0x0",
        "input": "0xc3f909d4",
        "nonce": "0x60",
        "chainId": "0xa4b1"
      },
      "additionalContracts": [],
      "isFixedGasLimit": false
    },
    {
      "hash": "0x2e1bdf17d3a13f217cae0ae16c90f60440b9fddc6252e959ded0d990b796f3f3",
      "transactionType": "CALL",
      "contractName": "EntryPoint",
      "contractAddress": "0x0000000071727de22e5e9d8baf0edac6f37da032",
      "function": "handleOps((address,uint256,bytes,bytes,bytes32,uint256,bytes32,bytes,bytes)[],address)",
      "arguments": [
        "[(0xb2d42c50f27528BFaF8850cBD667D64B384bDd75, 1, 0x, 0xb61d27f600000000000000000000000075faf114eafb1bdbe2f0316df893fd58ce46aa4d00000000000000000000000000000000000000000000000000000000000000000000000000000000000000000000000000000000000000000000000000000060000000000000000000000000000000000000000000000000000000000000004440c10f19000000000000000000000000b2d42c50f27528bfaf8850cbd667d64b384bdd750000000000000000000000000000000000000000000000000de0b6b3a764000000000000000000000000000000000000000000000000000000000000, 0x0000000000000000000000000100000000000000000000000000000001000000, 16777216, 0x0000000000000000000000000000010000000000000000000000000000000100, 0x, 0x38f9484056f1c23ca65f8b698b09991c8898a769dc82de920408645f6836adec05c1dd2cea143bbbd25a9799637db191c72f36e75e3e1edc5db5f80cfd24e0d21c)]",
        "0xb2d42c50f27528BFaF8850cBD667D64B384bDd75"
      ],
      "transaction": {
        "from": "0x8282b51f90de07f1279ca36f0f559c5d7733bed3",
        "to": "0x0000000071727de22e5e9d8baf0edac6f37da032",
        "gas": "0x159eb4a",
        "value": "0x0",
        "input": "0x765e827f0000000000000000000000000000000000000000000000000000000000000040000000000000000000000000b2d42c50f27528bfaf8850cbd667d64b384bdd7500000000000000000000000000000000000000000000000000000000000000010000000000000000000000000000000000000000000000000000000000000020000000000000000000000000b2d42c50f27528bfaf8850cbd667d64b384bdd7500000000000000000000000000000000000000000000000000000000000000010000000000000000000000000000000000000000000000000000000000000120000000000000000000000000000000000000000000000000000000000000014000000000000000000000000001000000000000000000000000000000010000000000000000000000000000000000000000000000000000000000000001000000000000000000000000000000000001000000000000000000000000000000010000000000000000000000000000000000000000000000000000000000000002600000000000000000000000000000000000000000000000000000000000000280000000000000000000000000000000000000000000000000000000000000000000000000000000000000000000000000000000000000000000000000000000e4b61d27f600000000000000000000000075faf114eafb1bdbe2f0316df893fd58ce46aa4d00000000000000000000000000000000000000000000000000000000000000000000000000000000000000000000000000000000000000000000000000000060000000000000000000000000000000000000000000000000000000000000004440c10f19000000000000000000000000b2d42c50f27528bfaf8850cbd667d64b384bdd750000000000000000000000000000000000000000000000000de0b6b3a764000000000000000000000000000000000000000000000000000000000000000000000000000000000000000000000000000000000000000000000000000000000000000000000000000000000000000000000000000000000000000000000000000000000000000000000000000000000000000000000000004138f9484056f1c23ca65f8b698b09991c8898a769dc82de920408645f6836adec05c1dd2cea143bbbd25a9799637db191c72f36e75e3e1edc5db5f80cfd24e0d21c00000000000000000000000000000000000000000000000000000000000000",
        "nonce": "0x61",
        "chainId": "0xa4b1"
      },
      "additionalContracts": [],
      "isFixedGasLimit": false
    }
  ],
  "receipts": [
    {
      "status": "0x1",
      "cumulativeGasUsed": "0xd86a3",
      "logs": [],
      "logsBloom": "0x00000000000000000000000000000000000000000000000000000000000000000000000000000000000000000000000000000000000000000000000000000000000000000000000000000000000000000000000000000000000000000000000000000000000000000000000000000000000000000000000000000000000000000000000000000000000000000000000000000000000000000000000000000000000000000000000000000000000000000000000000000000000000000000000000000000000000000000000000000000000000000000000000000000000000000000000000000000000000000000000000000000000000000000000000000000",
      "type": "0x2",
      "transactionHash": "0xe3ca6a3b8b688f7d38942e110ef75f8bf05ecd7c432429ee7dd619e0f3c5402e",
      "transactionIndex": "0x7",
      "blockHash": "0xfc79ad36b8db38a9a8ed806828a52a17170f20ba42e905a03ae019510339acf9",
      "blockNumber": "0x1c7b67b9",
      "gasUsed": "0x52df",
      "effectiveGasPrice": "0x131e0b0",
      "from": "0x8282b51f90de07f1279ca36f0f559c5d7733bed3",
      "to": "0x5aadfb43ef8daf45dd80f4676345b7676f1d70e3",
      "contractAddress": null,
      "gasUsedForL1": "0x97",
      "l1BlockNumber": "0x183b2e5",
      "timeboosted": false
    },
    {
      "status": "0x1",
      "cumulativeGasUsed": "0x8ecff",
      "logs": [
        {
          "address": "0x0000000071727de22e5e9d8baf0edac6f37da032",
          "topics": [
            "0x2da466a7b24304f47e87fa2e1e5a81b9831ce54fec19055ce277ca2f39ba42c4",
            "0x000000000000000000000000b2d42c50f27528bfaf8850cbd667d64b384bdd75"
          ],
          "data": "0x0000000000000000000000000000000000000000000000000000000300000000",
          "blockHash": "0xd9b65b47c0b305daf73c760c820309f0eed03402843e8d53f9ec939fdfd8a340",
          "blockNumber": "0x1c7b67bf",
          "blockTimestamp": "0x6a3f9ec4",
          "transactionHash": "0x2e1bdf17d3a13f217cae0ae16c90f60440b9fddc6252e959ded0d990b796f3f3",
          "transactionIndex": "0x7",
          "logIndex": "0x7",
          "removed": false
        },
        {
          "address": "0x0000000071727de22e5e9d8baf0edac6f37da032",
          "topics": [
            "0xbb47ee3e183a558b1a2ff0874b079f3fc5478b7454eacf2bfc5af2ff5878f972"
          ],
          "data": "0x",
          "blockHash": "0xd9b65b47c0b305daf73c760c820309f0eed03402843e8d53f9ec939fdfd8a340",
          "blockNumber": "0x1c7b67bf",
          "blockTimestamp": "0x6a3f9ec4",
          "transactionHash": "0x2e1bdf17d3a13f217cae0ae16c90f60440b9fddc6252e959ded0d990b796f3f3",
          "transactionIndex": "0x7",
          "logIndex": "0x8",
          "removed": false
        },
        {
          "address": "0x0000000071727de22e5e9d8baf0edac6f37da032",
          "topics": [
            "0x49628fd1471006c1482da88028e9ce4dbb080b815c9b0344d39e5a8e6ec1419f",
            "0xd6187397b84b9f7f912624ba7222172142f43c6c546d52cfd8dc3416d108878e",
            "0x000000000000000000000000b2d42c50f27528bfaf8850cbd667d64b384bdd75",
            "0x0000000000000000000000000000000000000000000000000000000000000000"
          ],
          "data": "0x00000000000000000000000000000000000000000000000000000000000000010000000000000000000000000000000000000000000000000000000000000001000000000000000000000000000000000000000000000000000000011a2f220000000000000000000000000000000000000000000000000000000000011a2f22",
          "blockHash": "0xd9b65b47c0b305daf73c760c820309f0eed03402843e8d53f9ec939fdfd8a340",
          "blockNumber": "0x1c7b67bf",
          "blockTimestamp": "0x6a3f9ec4",
          "transactionHash": "0x2e1bdf17d3a13f217cae0ae16c90f60440b9fddc6252e959ded0d990b796f3f3",
          "transactionIndex": "0x7",
          "logIndex": "0x9",
          "removed": false
        }
      ],
      "logsBloom": "0x00000000000000000000000000000000000000000000080000000000000000010008020000000000000000010000000000000000000000000000020000000000000000000000000000000000000000000040000000000000000000000000200000000000024800000000000000000800000000000000000000000000000200000000000000000000000000000000000000000000000000000000000000000000000000000000000000400000000000000000000000000000000002000000000000000000000000404001000000000000000000000000000000000000000020000040000000000000000000000000000000000000000000000100000000000000",
      "type": "0x2",
      "transactionHash": "0x2e1bdf17d3a13f217cae0ae16c90f60440b9fddc6252e959ded0d990b796f3f3",
      "transactionIndex": "0x7",
      "blockHash": "0xd9b65b47c0b305daf73c760c820309f0eed03402843e8d53f9ec939fdfd8a340",
      "blockNumber": "0x1c7b67bf",
      "gasUsed": "0x14ca4",
      "effectiveGasPrice": "0x1312d00",
      "from": "0x8282b51f90de07f1279ca36f0f559c5d7733bed3",
      "to": "0x0000000071727de22e5e9d8baf0edac6f37da032",
      "contractAddress": null,
      "gasUsedForL1": "0x23d",
      "l1BlockNumber": "0x183b2e5",
      "timeboosted": false
    }
  ],
  "libraries": [],
  "pending": [],
  "returns": {},
  "timestamp": 1782554310301,
  "chain": 42161,
  "commit": "72b6667"
}